:040800002FEF04F0E2
:080808009296898696948D9466
:1008100096928D8238EF04F0EA6A060EE96EEF5088
:100820000EE00F0E016E006A002EFED7012EFBD7E0
:100830008F0E006E002EFED70000EF2EF2D71200B2
:100840009296898696948D9496928D9212009296A5
:10085000898696948D8496928D9248EF04F0F86A7A
:10086000D09EC150C00B0F09C16E070EB46ECCD71D
:10087000040E056EFA0E066ECFDF052EFBD7E0DF05
:10088000040E056EFA0E066EC7DF052EFBD7DFD706
:10089000040E056EFA0E066EBFDF052EFBD7D0DF05
:1008A000040E056EFA0E066EB7DF052EFBD7DFD7F6
:0208B000030043
:020000040030CA
:0E000000240E3F1E008181000FC00FA00F4094
:00000001FF
;PIC18F4550
;CRC=FE16  CREATED="16-mar.-18 17:50"
