:040800007DEF04F094
:08080800046ED8CF05F0E0CF2B
:1008100006F00001E9CF0CF0EACF07F0E1CF08F0D5
:10082000E2CF09F0D9CF0AF0DACF0BF0F3CF12F014
:10083000F4CF13F0FACF14F000C00EF001C00FF0A7
:1008400002C010F003C011F0F2AA2AEF04F0F2B4D3
:100850006BEF04F00EC000F00FC001F010C002F00A
:1008600011C003F00CC0E9FF07C0EAFF078E08C003
:10087000E1FF09C0E2FF0AC0D9FF0BC0DAFF12C0D6
:10088000F3FF13C0F4FF14C0FAFF045006C0E0FFEA
:1008900005C0D8FF100092928982959E8C8E959CFF
:1008A0008C9C75EF04F09290898094948B94959A27
:1008B0008C8A76EF04F092928982959E8C9E959C0C
:1008C0008C9C78EF04F09290898094948B94959A04
:1008D0008C9A79EF04F0FE0ED76E2B0ED66E175061
:1008E000185C05E3165203E1D6D7DDD702D0E3D773
:1008F000EAD7172AF2942AEF04F0F86AD09E078EFE
:10090000166A176A7F0E186EC150C00B0F09C16EB0
:10091000070EB46E800ED56EF28AC00EF21295806C
:1009200083A003D0010E166E01D0166A938881B899
:1009300005D00A0E1826938881A8FDD7F0D70300AA
:020000040030CA
:0E000000240E3F1E008181000FC00FA00F4094
:00000001FF
;PIC18F4550
;CRC=F614  CREATED="17-abr.-18 17:47"
