:0408000018EF04F0F9
:08080800EA6A070EE96EEF50E9
:100810000EE00F0E016E006A002EFED7012EFBD7F0
:100820008F0E006E002EFED70000EF2EF2D71200C2
:10083000F86AD09E056A640E046EC150C00B0F09A1
:10084000C16E070EB46E938881B804D0320E0426B0
:10085000000E0522929A898A05C006F0062A06062D
:10086000D8B403D00768D0DFFAD704C007F0CCDFD4
:10087000929A899A05C006F0062A0606D8B403D0D3
:100880000768C2DFFAD704C007F0BEDFDCD7030079
:020000040030CA
:0E000000240E3F1E008181000FC00FA00F4094
:00000001FF
;PIC18F4550
;CRC=60DA  CREATED="09-mar.-18 18:02"
