:0408000054EF04F0BD
:08080800046ED8CF05F0E0CF2B
:1008100006F00001E9CF0CF0EACF07F0E1CF08F0D5
:10082000E2CF09F0D9CF0AF0DACF0BF0F3CF12F014
:10083000F4CF13F0FACF14F000C00EF001C00FF0A7
:1008400002C010F003C011F0F2AA2AEF04F0F2B4D3
:100850004BEF04F00EC000F00FC001F010C002F02A
:1008600011C003F00CC0E9FF07C0EAFF078E08C003
:10087000E1FF09C0E2FF0AC0D9FF0BC0DAFF12C0D6
:10088000F3FF13C0F4FF14C0FAFF045006C0E0FFEA
:1008900005C0D8FF1000480ED76EE50ED66E929AAE
:1008A000897AF2942AEF04F0F86AD09E078EC1503C
:1008B000C00B0F09C16E070EB46E480ED76EE50E61
:1008C000D66E870ED56EF28AC00EF212FFD70300E5
:020000040030CA
:0E000000240E3F1E008181000FC00FA00F4094
:00000001FF
;PIC18F4550
;CRC=CAB9  CREATED="09-mar.-18 18:39"
