:0408000090EF04F081
:08080800046ED8CF05F0E0CF2B
:1008100006F00001E9CF0CF0EACF07F0E1CF08F0D5
:10082000E2CF09F0D9CF0AF0DACF0BF0F3CF12F014
:10083000F4CF13F0FACF14F000C00EF001C00FF0A7
:1008400002C010F003C011F0F2AA2AEF04F0F2B4D3
:1008500076EF04F00EC000F00FC001F010C002F0FF
:1008600011C003F00CC0E9FF07C0EAFF078E08C003
:10087000E1FF09C0E2FF0AC0D9FF0BC0DAFF12C0D6
:10088000F3FF13C0F4FF14C0FAFF045006C0E0FFEA
:1008900005C0D8FF100092928982959E8C9E959CEF
:1008A0008C9C12009294898493948A8496908D9063
:1008B0001200F1DFF7DF80EF04F0929489849394C3
:1008C0008A9496908D90120092928982959E8C8E39
:1008D000959C8C9C1200F1DFF7DF84EF04F0DBDFE6
:1008E000ECDF8AEF04F0F0DFDDDF1200FE0ED76EE2
:1008F0002B0ED66E1A501B5C0FE3185202E0D9D7AC
:100900000BD0175202E0E7D707D0185204E0175275
:1009100002E0E5D701D0E7DF1A2AF2942AEF04F0CB
:10092000F86AD09E078E176A186A196A1A6A5A0EF0
:100930001B6EC150C00B0F09C16E070EB46E800E46
:10094000D56EF28AC00EF212958083A004D0010EFB
:10095000186E176A1ED0958283A204D0010E176EFE
:10096000186A17D0958083A00DD0958283A20AD0F3
:10097000010E176E186E958083A003D0958283B206
:10098000FAD707D0166AF2BE168EF29EACDF16BEFC
:10099000F28E938881B805D00A0E1B26938881A811
:0609A000FDD7D2D70300D1
:020000040030CA
:0E000000240E3F1E008181000FC00FA00F4094
:00000001FF
;PIC18F4550
;CRC=62F3  CREATED="27-abr.-18 17:48"
