:0408000083EF04F08E
:08080800046ED8CF05F0E0CF2B
:1008100006F00001E9CF0CF0EACF07F0E1CF08F0D5
:10082000E2CF09F0D9CF0AF0DACF0BF0F3CF12F014
:10083000F4CF13F0FACF14F000C00EF001C00FF0A7
:1008400002C010F003C011F0F2AA2AEF04F0F2B4D3
:1008500067EF04F00EC000F00FC001F010C002F00E
:1008600011C003F00CC0E9FF07C0EAFF078E08C003
:10087000E1FF09C0E2FF0AC0D9FF0BC0DAFF12C0D6
:10088000F3FF13C0F4FF14C0FAFF045006C0E0FFEA
:1008900005C0D8FF10009290898094948B94959A0B
:1008A0008C9A120092928982959E8C8E959C8C9C3B
:1008B000120092928982959E8C9E959C8C9C12002F
:1008C0009290898094948B94959A8C8A1200FE0E53
:1008D000D76E2B0ED66E19501A5C11E3165203E038
:1008E000DADFE0DF0CD0175203E0E3DFE9DF07D007
:1008F000185203E0DEDFCFDF02D0D4DFE1DF192AB8
:10090000F2942AEF04F0F86AD09E078E166A176AEE
:10091000186A196A5A0E1A6EC150C00B0F09C16EBF
:10092000070EB46E800ED56EF28AC00EF21295805C
:1009300083A004D0010E166E176A03D0176A010E49
:10094000166E958483A404D0010E176E166A03D028
:10095000176A010E166E958683A602D0186A02D019
:10096000010E186E938881B805D00A0E1A26938856
:0809700081A8FDD7DCD70300CC
:020000040030CA
:0E000000240E3F1E008181000FC00FA00F4094
:00000001FF
;PIC18F4550
;CRC=25CC  CREATED="17-abr.-18 19:10"
